{
  "abi": [
    {
      "inputs": [
        {
          "internalType": "address",
          "name": "_tokenAddress",
          "type": "address"
        }
      ],
      "stateMutability": "nonpayable",
      "type": "constructor"
    },
    {
      "inputs": [
        {
          "internalType": "address",
          "name": "token",
          "type": "address"
        }
      ],
      "name": "SafeERC20FailedOperation",
      "type": "error"
    },
    {
      "inputs": [],
      "name": "SECONDS_PER_MONTH",
      "outputs": [
        {
          "internalType": "uint256",
          "name": "",
          "type": "uint256"
        }
      ],
      "stateMutability": "view",
      "type": "function"
    },
    {
      "inputs": [
        {
          "internalType": "uint256",
          "name": "_amount",
          "type": "uint256"
        },
        {
          "internalType": "uint256",
          "name": "_months",
          "type": "uint256"
        }
      ],
      "name": "createFD",
      "outputs": [],
      "stateMutability": "nonpayable",
      "type": "function"
    },
    {
      "inputs": [
        {
          "internalType": "address",
          "name": "",
          "type": "address"
        },
        {
          "internalType": "uint256",
          "name": "",
          "type": "uint256"
        }
      ],
      "name": "fixedDeposits",
      "outputs": [
        {
          "internalType": "uint256",
          "name": "amount",
          "type": "uint256"
        },
        {
          "internalType": "uint256",
          "name": "startTime",
          "type": "uint256"
        },
        {
          "internalType": "uint256",
          "name": "maturityPeriod",
          "type": "uint256"
        },
        {
          "internalType": "bool",
          "name": "withdrawn",
          "type": "bool"
        },
        {
          "internalType": "bool",
          "name": "renewed",
          "type": "bool"
        }
      ],
      "stateMutability": "view",
      "type": "function"
    },
    {
      "inputs": [
        {
          "internalType": "address",
          "name": "user",
          "type": "address"
        }
      ],
      "name": "getFDs",
      "outputs": [
        {
          "components": [
            {
              "internalType": "uint256",
              "name": "amount",
              "type": "uint256"
            },
            {
              "internalType": "uint256",
              "name": "startTime",
              "type": "uint256"
            },
            {
              "internalType": "uint256",
              "name": "maturityPeriod",
              "type": "uint256"
            },
            {
              "internalType": "bool",
              "name": "withdrawn",
              "type": "bool"
            },
            {
              "internalType": "bool",
              "name": "renewed",
              "type": "bool"
            }
          ],
          "internalType": "struct FixedDepositVault.FixedDeposit[]",
          "name": "",
          "type": "tuple[]"
        }
      ],
      "stateMutability": "view",
      "type": "function"
    },
    {
      "inputs": [],
      "name": "interestRate",
      "outputs": [
        {
          "internalType": "uint256",
          "name": "",
          "type": "uint256"
        }
      ],
      "stateMutability": "view",
      "type": "function"
    },
    {
      "inputs": [],
      "name": "myToken",
      "outputs": [
        {
          "internalType": "contract IERC20",
          "name": "",
          "type": "address"
        }
      ],
      "stateMutability": "view",
      "type": "function"
    },
    {
      "inputs": [],
      "name": "penaltyRate",
      "outputs": [
        {
          "internalType": "uint256",
          "name": "",
          "type": "uint256"
        }
      ],
      "stateMutability": "view",
      "type": "function"
    },
    {
      "inputs": [
        {
          "internalType": "uint256",
          "name": "_index",
          "type": "uint256"
        },
        {
          "internalType": "uint256",
          "name": "_newMonths",
          "type": "uint256"
        }
      ],
      "name": "renewFD",
      "outputs": [],
      "stateMutability": "nonpayable",
      "type": "function"
    },
    {
      "inputs": [
        {
          "internalType": "uint256",
          "name": "_index",
          "type": "uint256"
        }
      ],
      "name": "withdrawFD",
      "outputs": [],
      "stateMutability": "nonpayable",
      "type": "function"
    }
  ],
  "bytecode": "60a06040526001600055600a60015534801561001a57600080fd5b50604051610a95380380610a958339810160408190526100399161004a565b6001600160a01b031660805261007a565b60006020828403121561005c57600080fd5b81516001600160a01b038116811461007357600080fd5b9392505050565b6080516109f26100a36000396000818161013b015281816103f901526105d401526109f26000f3fe608060405234801561001057600080fd5b50600436106100935760003560e01c8063a42644b811610066578063a42644b814610121578063b8fcf93714610136578063c53eb49d14610175578063d6b7494f14610188578063f192ae341461019157600080fd5b8063030e7d521461009857806310786deb146100c15780631f637dfc146100d95780637c3a00fd14610118575b600080fd5b6100ab6100a636600461082d565b6101a4565b6040516100b8919061084f565b60405180910390f35b6100cb62278d0081565b6040519081526020016100b8565b6100ec6100e73660046108c6565b610250565b60408051958652602086019490945292840191909152151560608301521515608082015260a0016100b8565b6100cb60005481565b61013461012f3660046108f0565b6102a2565b005b61015d7f000000000000000000000000000000000000000000000000000000000000000081565b6040516001600160a01b0390911681526020016100b8565b610134610183366004610909565b610426565b6100cb60015481565b61013461019f366004610909565b610527565b6001600160a01b0381166000908152600260209081526040808320805482518185028101850190935280835260609492939192909184015b828210156102455760008481526020908190206040805160a0810182526004860290920180548352600180820154848601526002820154928401929092526003015460ff80821615156060850152610100909104161515608083015290835290920191016101dc565b505050509050919050565b6002602052816000526040600020818154811061026c57600080fd5b60009182526020909120600490910201805460018201546002830154600390930154919450925060ff8082169161010090041685565b3360009081526002602052604081208054839081106102c3576102c361092b565b60009182526020909120600490910201600381015490915060ff16156103245760405162461bcd60e51b815260206004820152601160248201527020b63932b0b23c903bb4ba34323930bbb760791b60448201526064015b60405180910390fd5b806002015481600101546103389190610957565b42101561037c5760405162461bcd60e51b81526020600482015260126024820152711191081b9bdd081e595d081b585d1d5c995960721b604482015260640161031b565b60038101805460ff19166001908117918290556040805160a08101825284548152848301546020820152600285015491810191909152606081019190915261010090910460ff16151560808201526000906103d6906106a9565b905060008183600001546103ea9190610957565b90506104206001600160a01b037f0000000000000000000000000000000000000000000000000000000000000000163383610703565b50505050565b3360009081526002602052604081208054849081106104475761044761092b565b60009182526020909120600490910201600381015490915060ff16156104a35760405162461bcd60e51b815260206004820152601160248201527020b63932b0b23c903bb4ba34323930bbb760791b604482015260640161031b565b806002015481600101546104b79190610957565b4210156104fb5760405162461bcd60e51b81526020600482015260126024820152711191081b9bdd081e595d081b585d1d5c995960721b604482015260640161031b565b42600182015561050e62278d0083610970565b6002820155600301805461ff0019166101001790555050565b600082116105775760405162461bcd60e51b815260206004820152601d60248201527f416d6f756e74206d7573742062652067726561746572207468616e2030000000604482015260640161031b565b600081116105c75760405162461bcd60e51b815260206004820152601e60248201527f4d757374206c6f636b20666f72206174206c656173742031206d6f6e74680000604482015260640161031b565b6105fc6001600160a01b037f000000000000000000000000000000000000000000000000000000000000000016333085610767565b33600090815260026020908152604091829020825160a081018452858152429281019290925291810161063262278d0085610970565b815260006020808301829052604092830182905284546001808201875595835291819020845160049093020191825583015193810193909355810151600283015560608101516003909201805460809092015161ffff1990921692151561ff00191692909217610100911515919091021790555050565b6000808260200151426106bc9190610987565b905060006106cd62278d008361099a565b9050600060648260005487600001516106e69190610970565b6106f09190610970565b6106fa919061099a565b95945050505050565b6040516001600160a01b0383811660248301526044820183905261076291859182169063a9059cbb906064015b604051602081830303815290604052915060e01b6020820180516001600160e01b0383818316178352505050506107a0565b505050565b6040516001600160a01b0384811660248301528381166044830152606482018390526104209186918216906323b872dd90608401610730565b600080602060008451602086016000885af1806107c3576040513d6000823e3d81fd5b50506000513d915081156107db5780600114156107e8565b6001600160a01b0384163b155b1561042057604051635274afe760e01b81526001600160a01b038516600482015260240161031b565b80356001600160a01b038116811461082857600080fd5b919050565b60006020828403121561083f57600080fd5b61084882610811565b9392505050565b602080825282518282018190526000918401906040840190835b818110156108bb5783518051845260208101516020850152604081015160408501526060810151151560608501526080810151151560808501525060a083019250602084019350600181019050610869565b509095945050505050565b600080604083850312156108d957600080fd5b6108e283610811565b946020939093013593505050565b60006020828403121561090257600080fd5b5035919050565b6000806040838503121561091c57600080fd5b50508035926020909101359150565b634e487b7160e01b600052603260045260246000fd5b634e487b7160e01b600052601160045260246000fd5b8082018082111561096a5761096a610941565b92915050565b808202811582820484141761096a5761096a610941565b8181038181111561096a5761096a610941565b6000826109b757634e487b7160e01b600052601260045260246000fd5b50049056fea2646970667358221220111a20c5914d4f19ce7927bd0605e87f8720716a265d3c63ab09116b439ff36564736f6c634300081e0033",
  "bytecodeSha1": "8ac281d53e8a9459f74a91a73b7dcffe3ddb504c",
  "compiler": {
    "evm_version": "istanbul",
    "optimizer": {
      "enabled": true,
      "runs": 200
    },
    "version": "0.8.30+commit.73712a01"
  },
  "contractName": "FixedDepositVault",
  "language": "Solidity",
  "natspec": {
    "errors": {
      "SafeERC20FailedOperation(address)": [
        {
          "details": "An operation with an ERC-20 token failed."
        }
      ]
    },
    "kind": "dev",
    "methods": {},
    "version": 1
  },
  "opcodes": "PUSH1 0x80 PUSH1 0x40 MSTORE CALLVALUE DUP1 ISZERO PUSH2 0x10 JUMPI PUSH1 0x0 DUP1 REVERT JUMPDEST POP PUSH1 0x4 CALLDATASIZE LT PUSH2 0x93 JUMPI PUSH1 0x0 CALLDATALOAD PUSH1 0xE0 SHR DUP1 PUSH4 0xA42644B8 GT PUSH2 0x66 JUMPI DUP1 PUSH4 0xA42644B8 EQ PUSH2 0x121 JUMPI DUP1 PUSH4 0xB8FCF937 EQ PUSH2 0x136 JUMPI DUP1 PUSH4 0xC53EB49D EQ PUSH2 0x175 JUMPI DUP1 PUSH4 0xD6B7494F EQ PUSH2 0x188 JUMPI DUP1 PUSH4 0xF192AE34 EQ PUSH2 0x191 JUMPI PUSH1 0x0 DUP1 REVERT JUMPDEST DUP1 PUSH4 0x30E7D52 EQ PUSH2 0x98 JUMPI DUP1 PUSH4 0x10786DEB EQ PUSH2 0xC1 JUMPI DUP1 PUSH4 0x1F637DFC EQ PUSH2 0xD9 JUMPI DUP1 PUSH4 0x7C3A00FD EQ PUSH2 0x118 JUMPI JUMPDEST PUSH1 0x0 DUP1 REVERT JUMPDEST PUSH2 0xAB PUSH2 0xA6 CALLDATASIZE PUSH1 0x4 PUSH2 0x82D JUMP JUMPDEST PUSH2 0x1A4 JUMP JUMPDEST PUSH1 0x40 MLOAD PUSH2 0xB8 SWAP2 SWAP1 PUSH2 0x84F JUMP JUMPDEST PUSH1 0x40 MLOAD DUP1 SWAP2 SUB SWAP1 RETURN JUMPDEST PUSH2 0xCB PUSH3 0x278D00 DUP2 JUMP JUMPDEST PUSH1 0x40 MLOAD SWAP1 DUP2 MSTORE PUSH1 0x20 ADD PUSH2 0xB8 JUMP JUMPDEST PUSH2 0xEC PUSH2 0xE7 CALLDATASIZE PUSH1 0x4 PUSH2 0x8C6 JUMP JUMPDEST PUSH2 0x250 JUMP JUMPDEST PUSH1 0x40 DUP1 MLOAD SWAP6 DUP7 MSTORE PUSH1 0x20 DUP7 ADD SWAP5 SWAP1 SWAP5 MSTORE SWAP3 DUP5 ADD SWAP2 SWAP1 SWAP2 MSTORE ISZERO ISZERO PUSH1 0x60 DUP4 ADD MSTORE ISZERO ISZERO PUSH1 0x80 DUP3 ADD MSTORE PUSH1 0xA0 ADD PUSH2 0xB8 JUMP JUMPDEST PUSH2 0xCB PUSH1 0x0 SLOAD DUP2 JUMP JUMPDEST PUSH2 0x134 PUSH2 0x12F CALLDATASIZE PUSH1 0x4 PUSH2 0x8F0 JUMP JUMPDEST PUSH2 0x2A2 JUMP JUMPDEST STOP JUMPDEST PUSH2 0x15D PUSH32 0x0 DUP2 JUMP JUMPDEST PUSH1 0x40 MLOAD PUSH1 0x1 PUSH1 0x1 PUSH1 0xA0 SHL SUB SWAP1 SWAP2 AND DUP2 MSTORE PUSH1 0x20 ADD PUSH2 0xB8 JUMP JUMPDEST PUSH2 0x134 PUSH2 0x183 CALLDATASIZE PUSH1 0x4 PUSH2 0x909 JUMP JUMPDEST PUSH2 0x426 JUMP JUMPDEST PUSH2 0xCB PUSH1 0x1 SLOAD DUP2 JUMP JUMPDEST PUSH2 0x134 PUSH2 0x19F CALLDATASIZE PUSH1 0x4 PUSH2 0x909 JUMP JUMPDEST PUSH2 0x527 JUMP JUMPDEST PUSH1 0x1 PUSH1 0x1 PUSH1 0xA0 SHL SUB DUP2 AND PUSH1 0x0 SWAP1 DUP2 MSTORE PUSH1 0x2 PUSH1 0x20 SWAP1 DUP2 MSTORE PUSH1 0x40 DUP1 DUP4 KECCAK256 DUP1 SLOAD DUP3 MLOAD DUP2 DUP6 MUL DUP2 ADD DUP6 ADD SWAP1 SWAP4 MSTORE DUP1 DUP4 MSTORE PUSH1 0x60 SWAP5 SWAP3 SWAP4 SWAP2 SWAP3 SWAP1 SWAP2 DUP5 ADD JUMPDEST DUP3 DUP3 LT ISZERO PUSH2 0x245 JUMPI PUSH1 0x0 DUP5 DUP2 MSTORE PUSH1 0x20 SWAP1 DUP2 SWAP1 KECCAK256 PUSH1 0x40 DUP1 MLOAD PUSH1 0xA0 DUP2 ADD DUP3 MSTORE PUSH1 0x4 DUP7 MUL SWAP1 SWAP3 ADD DUP1 SLOAD DUP4 MSTORE PUSH1 0x1 DUP1 DUP3 ADD SLOAD DUP5 DUP7 ADD MSTORE PUSH1 0x2 DUP3 ADD SLOAD SWAP3 DUP5 ADD SWAP3 SWAP1 SWAP3 MSTORE PUSH1 0x3 ADD SLOAD PUSH1 0xFF DUP1 DUP3 AND ISZERO ISZERO PUSH1 0x60 DUP6 ADD MSTORE PUSH2 0x100 SWAP1 SWAP2 DIV AND ISZERO ISZERO PUSH1 0x80 DUP4 ADD MSTORE SWAP1 DUP4 MSTORE SWAP1 SWAP3 ADD SWAP2 ADD PUSH2 0x1DC JUMP JUMPDEST POP POP POP POP SWAP1 POP SWAP2 SWAP1 POP JUMP JUMPDEST PUSH1 0x2 PUSH1 0x20 MSTORE DUP2 PUSH1 0x0 MSTORE PUSH1 0x40 PUSH1 0x0 KECCAK256 DUP2 DUP2 SLOAD DUP2 LT PUSH2 0x26C JUMPI PUSH1 0x0 DUP1 REVERT JUMPDEST PUSH1 0x0 SWAP2 DUP3 MSTORE PUSH1 0x20 SWAP1 SWAP2 KECCAK256 PUSH1 0x4 SWAP1 SWAP2 MUL ADD DUP1 SLOAD PUSH1 0x1 DUP3 ADD SLOAD PUSH1 0x2 DUP4 ADD SLOAD PUSH1 0x3 SWAP1 SWAP4 ADD SLOAD SWAP2 SWAP5 POP SWAP3 POP PUSH1 0xFF DUP1 DUP3 AND SWAP2 PUSH2 0x100 SWAP1 DIV AND DUP6 JUMP JUMPDEST CALLER PUSH1 0x0 SWAP1 DUP2 MSTORE PUSH1 0x2 PUSH1 0x20 MSTORE PUSH1 0x40 DUP2 KECCAK256 DUP1 SLOAD DUP4 SWAP1 DUP2 LT PUSH2 0x2C3 JUMPI PUSH2 0x2C3 PUSH2 0x92B JUMP JUMPDEST PUSH1 0x0 SWAP2 DUP3 MSTORE PUSH1 0x20 SWAP1 SWAP2 KECCAK256 PUSH1 0x4 SWAP1 SWAP2 MUL ADD PUSH1 0x3 DUP2 ADD SLOAD SWAP1 SWAP2 POP PUSH1 0xFF AND ISZERO PUSH2 0x324 JUMPI PUSH1 0x40 MLOAD PUSH3 0x461BCD PUSH1 0xE5 SHL DUP2 MSTORE PUSH1 0x20 PUSH1 0x4 DUP3 ADD MSTORE PUSH1 0x11 PUSH1 0x24 DUP3 ADD MSTORE PUSH17 0x20B63932B0B23C903BB4BA34323930BBB7 PUSH1 0x79 SHL PUSH1 0x44 DUP3 ADD MSTORE PUSH1 0x64 ADD JUMPDEST PUSH1 0x40 MLOAD DUP1 SWAP2 SUB SWAP1 REVERT JUMPDEST DUP1 PUSH1 0x2 ADD SLOAD DUP2 PUSH1 0x1 ADD SLOAD PUSH2 0x338 SWAP2 SWAP1 PUSH2 0x957 JUMP JUMPDEST TIMESTAMP LT ISZERO PUSH2 0x37C JUMPI PUSH1 0x40 MLOAD PUSH3 0x461BCD PUSH1 0xE5 SHL DUP2 MSTORE PUSH1 0x20 PUSH1 0x4 DUP3 ADD MSTORE PUSH1 0x12 PUSH1 0x24 DUP3 ADD MSTORE PUSH18 0x1191081B9BDD081E595D081B585D1D5C9959 PUSH1 0x72 SHL PUSH1 0x44 DUP3 ADD MSTORE PUSH1 0x64 ADD PUSH2 0x31B JUMP JUMPDEST PUSH1 0x3 DUP2 ADD DUP1 SLOAD PUSH1 0xFF NOT AND PUSH1 0x1 SWAP1 DUP2 OR SWAP2 DUP3 SWAP1 SSTORE PUSH1 0x40 DUP1 MLOAD PUSH1 0xA0 DUP2 ADD DUP3 MSTORE DUP5 SLOAD DUP2 MSTORE DUP5 DUP4 ADD SLOAD PUSH1 0x20 DUP3 ADD MSTORE PUSH1 0x2 DUP6 ADD SLOAD SWAP2 DUP2 ADD SWAP2 SWAP1 SWAP2 MSTORE PUSH1 0x60 DUP2 ADD SWAP2 SWAP1 SWAP2 MSTORE PUSH2 0x100 SWAP1 SWAP2 DIV PUSH1 0xFF AND ISZERO ISZERO PUSH1 0x80 DUP3 ADD MSTORE PUSH1 0x0 SWAP1 PUSH2 0x3D6 SWAP1 PUSH2 0x6A9 JUMP JUMPDEST SWAP1 POP PUSH1 0x0 DUP2 DUP4 PUSH1 0x0 ADD SLOAD PUSH2 0x3EA SWAP2 SWAP1 PUSH2 0x957 JUMP JUMPDEST SWAP1 POP PUSH2 0x420 PUSH1 0x1 PUSH1 0x1 PUSH1 0xA0 SHL SUB PUSH32 0x0 AND CALLER DUP4 PUSH2 0x703 JUMP JUMPDEST POP POP POP POP JUMP JUMPDEST CALLER PUSH1 0x0 SWAP1 DUP2 MSTORE PUSH1 0x2 PUSH1 0x20 MSTORE PUSH1 0x40 DUP2 KECCAK256 DUP1 SLOAD DUP5 SWAP1 DUP2 LT PUSH2 0x447 JUMPI PUSH2 0x447 PUSH2 0x92B JUMP JUMPDEST PUSH1 0x0 SWAP2 DUP3 MSTORE PUSH1 0x20 SWAP1 SWAP2 KECCAK256 PUSH1 0x4 SWAP1 SWAP2 MUL ADD PUSH1 0x3 DUP2 ADD SLOAD SWAP1 SWAP2 POP PUSH1 0xFF AND ISZERO PUSH2 0x4A3 JUMPI PUSH1 0x40 MLOAD PUSH3 0x461BCD PUSH1 0xE5 SHL DUP2 MSTORE PUSH1 0x20 PUSH1 0x4 DUP3 ADD MSTORE PUSH1 0x11 PUSH1 0x24 DUP3 ADD MSTORE PUSH17 0x20B63932B0B23C903BB4BA34323930BBB7 PUSH1 0x79 SHL PUSH1 0x44 DUP3 ADD MSTORE PUSH1 0x64 ADD PUSH2 0x31B JUMP JUMPDEST DUP1 PUSH1 0x2 ADD SLOAD DUP2 PUSH1 0x1 ADD SLOAD PUSH2 0x4B7 SWAP2 SWAP1 PUSH2 0x957 JUMP JUMPDEST TIMESTAMP LT ISZERO PUSH2 0x4FB JUMPI PUSH1 0x40 MLOAD PUSH3 0x461BCD PUSH1 0xE5 SHL DUP2 MSTORE PUSH1 0x20 PUSH1 0x4 DUP3 ADD MSTORE PUSH1 0x12 PUSH1 0x24 DUP3 ADD MSTORE PUSH18 0x1191081B9BDD081E595D081B585D1D5C9959 PUSH1 0x72 SHL PUSH1 0x44 DUP3 ADD MSTORE PUSH1 0x64 ADD PUSH2 0x31B JUMP JUMPDEST TIMESTAMP PUSH1 0x1 DUP3 ADD SSTORE PUSH2 0x50E PUSH3 0x278D00 DUP4 PUSH2 0x970 JUMP JUMPDEST PUSH1 0x2 DUP3 ADD SSTORE PUSH1 0x3 ADD DUP1 SLOAD PUSH2 0xFF00 NOT AND PUSH2 0x100 OR SWAP1 SSTORE POP POP JUMP JUMPDEST PUSH1 0x0 DUP3 GT PUSH2 0x577 JUMPI PUSH1 0x40 MLOAD PUSH3 0x461BCD PUSH1 0xE5 SHL DUP2 MSTORE PUSH1 0x20 PUSH1 0x4 DUP3 ADD MSTORE PUSH1 0x1D PUSH1 0x24 DUP3 ADD MSTORE PUSH32 0x416D6F756E74206D7573742062652067726561746572207468616E2030000000 PUSH1 0x44 DUP3 ADD MSTORE PUSH1 0x64 ADD PUSH2 0x31B JUMP JUMPDEST PUSH1 0x0 DUP2 GT PUSH2 0x5C7 JUMPI PUSH1 0x40 MLOAD PUSH3 0x461BCD PUSH1 0xE5 SHL DUP2 MSTORE PUSH1 0x20 PUSH1 0x4 DUP3 ADD MSTORE PUSH1 0x1E PUSH1 0x24 DUP3 ADD MSTORE PUSH32 0x4D757374206C6F636B20666F72206174206C656173742031206D6F6E74680000 PUSH1 0x44 DUP3 ADD MSTORE PUSH1 0x64 ADD PUSH2 0x31B JUMP JUMPDEST PUSH2 0x5FC PUSH1 0x1 PUSH1 0x1 PUSH1 0xA0 SHL SUB PUSH32 0x0 AND CALLER ADDRESS DUP6 PUSH2 0x767 JUMP JUMPDEST CALLER PUSH1 0x0 SWAP1 DUP2 MSTORE PUSH1 0x2 PUSH1 0x20 SWAP1 DUP2 MSTORE PUSH1 0x40 SWAP2 DUP3 SWAP1 KECCAK256 DUP3 MLOAD PUSH1 0xA0 DUP2 ADD DUP5 MSTORE DUP6 DUP2 MSTORE TIMESTAMP SWAP3 DUP2 ADD SWAP3 SWAP1 SWAP3 MSTORE SWAP2 DUP2 ADD PUSH2 0x632 PUSH3 0x278D00 DUP6 PUSH2 0x970 JUMP JUMPDEST DUP2 MSTORE PUSH1 0x0 PUSH1 0x20 DUP1 DUP4 ADD DUP3 SWAP1 MSTORE PUSH1 0x40 SWAP3 DUP4 ADD DUP3 SWAP1 MSTORE DUP5 SLOAD PUSH1 0x1 DUP1 DUP3 ADD DUP8 SSTORE SWAP6 DUP4 MSTORE SWAP2 DUP2 SWAP1 KECCAK256 DUP5 MLOAD PUSH1 0x4 SWAP1 SWAP4 MUL ADD SWAP2 DUP3 SSTORE DUP4 ADD MLOAD SWAP4 DUP2 ADD SWAP4 SWAP1 SWAP4 SSTORE DUP2 ADD MLOAD PUSH1 0x2 DUP4 ADD SSTORE PUSH1 0x60 DUP2 ADD MLOAD PUSH1 0x3 SWAP1 SWAP3 ADD DUP1 SLOAD PUSH1 0x80 SWAP1 SWAP3 ADD MLOAD PUSH2 0xFFFF NOT SWAP1 SWAP3 AND SWAP3 ISZERO ISZERO PUSH2 0xFF00 NOT AND SWAP3 SWAP1 SWAP3 OR PUSH2 0x100 SWAP2 ISZERO ISZERO SWAP2 SWAP1 SWAP2 MUL OR SWAP1 SSTORE POP POP JUMP JUMPDEST PUSH1 0x0 DUP1 DUP3 PUSH1 0x20 ADD MLOAD TIMESTAMP PUSH2 0x6BC SWAP2 SWAP1 PUSH2 0x987 JUMP JUMPDEST SWAP1 POP PUSH1 0x0 PUSH2 0x6CD PUSH3 0x278D00 DUP4 PUSH2 0x99A JUMP JUMPDEST SWAP1 POP PUSH1 0x0 PUSH1 0x64 DUP3 PUSH1 0x0 SLOAD DUP8 PUSH1 0x0 ADD MLOAD PUSH2 0x6E6 SWAP2 SWAP1 PUSH2 0x970 JUMP JUMPDEST PUSH2 0x6F0 SWAP2 SWAP1 PUSH2 0x970 JUMP JUMPDEST PUSH2 0x6FA SWAP2 SWAP1 PUSH2 0x99A JUMP JUMPDEST SWAP6 SWAP5 POP POP POP POP POP JUMP JUMPDEST PUSH1 0x40 MLOAD PUSH1 0x1 PUSH1 0x1 PUSH1 0xA0 SHL SUB DUP4 DUP2 AND PUSH1 0x24 DUP4 ADD MSTORE PUSH1 0x44 DUP3 ADD DUP4 SWAP1 MSTORE PUSH2 0x762 SWAP2 DUP6 SWAP2 DUP3 AND SWAP1 PUSH4 0xA9059CBB SWAP1 PUSH1 0x64 ADD JUMPDEST PUSH1 0x40 MLOAD PUSH1 0x20 DUP2 DUP4 SUB SUB DUP2 MSTORE SWAP1 PUSH1 0x40 MSTORE SWAP2 POP PUSH1 0xE0 SHL PUSH1 0x20 DUP3 ADD DUP1 MLOAD PUSH1 0x1 PUSH1 0x1 PUSH1 0xE0 SHL SUB DUP4 DUP2 DUP4 AND OR DUP4 MSTORE POP POP POP POP PUSH2 0x7A0 JUMP JUMPDEST POP POP POP JUMP JUMPDEST PUSH1 0x40 MLOAD PUSH1 0x1 PUSH1 0x1 PUSH1 0xA0 SHL SUB DUP5 DUP2 AND PUSH1 0x24 DUP4 ADD MSTORE DUP4 DUP2 AND PUSH1 0x44 DUP4 ADD MSTORE PUSH1 0x64 DUP3 ADD DUP4 SWAP1 MSTORE PUSH2 0x420 SWAP2 DUP7 SWAP2 DUP3 AND SWAP1 PUSH4 0x23B872DD SWAP1 PUSH1 0x84 ADD PUSH2 0x730 JUMP JUMPDEST PUSH1 0x0 DUP1 PUSH1 0x20 PUSH1 0x0 DUP5 MLOAD PUSH1 0x20 DUP7 ADD PUSH1 0x0 DUP9 GAS CALL DUP1 PUSH2 0x7C3 JUMPI PUSH1 0x40 MLOAD RETURNDATASIZE PUSH1 0x0 DUP3 RETURNDATACOPY RETURNDATASIZE DUP2 REVERT JUMPDEST POP POP PUSH1 0x0 MLOAD RETURNDATASIZE SWAP2 POP DUP2 ISZERO PUSH2 0x7DB JUMPI DUP1 PUSH1 0x1 EQ ISZERO PUSH2 0x7E8 JUMP JUMPDEST PUSH1 0x1 PUSH1 0x1 PUSH1 0xA0 SHL SUB DUP5 AND EXTCODESIZE ISZERO JUMPDEST ISZERO PUSH2 0x420 JUMPI PUSH1 0x40 MLOAD PUSH4 0x5274AFE7 PUSH1 0xE0 SHL DUP2 MSTORE PUSH1 0x1 PUSH1 0x1 PUSH1 0xA0 SHL SUB DUP6 AND PUSH1 0x4 DUP3 ADD MSTORE PUSH1 0x24 ADD PUSH2 0x31B JUMP JUMPDEST DUP1 CALLDATALOAD PUSH1 0x1 PUSH1 0x1 PUSH1 0xA0 SHL SUB DUP2 AND DUP2 EQ PUSH2 0x828 JUMPI PUSH1 0x0 DUP1 REVERT JUMPDEST SWAP2 SWAP1 POP JUMP JUMPDEST PUSH1 0x0 PUSH1 0x20 DUP3 DUP5 SUB SLT ISZERO PUSH2 0x83F JUMPI PUSH1 0x0 DUP1 REVERT JUMPDEST PUSH2 0x848 DUP3 PUSH2 0x811 JUMP JUMPDEST SWAP4 SWAP3 POP POP POP JUMP JUMPDEST PUSH1 0x20 DUP1 DUP3 MSTORE DUP3 MLOAD DUP3 DUP3 ADD DUP2 SWAP1 MSTORE PUSH1 0x0 SWAP2 DUP5 ADD SWAP1 PUSH1 0x40 DUP5 ADD SWAP1 DUP4 JUMPDEST DUP2 DUP2 LT ISZERO PUSH2 0x8BB JUMPI DUP4 MLOAD DUP1 MLOAD DUP5 MSTORE PUSH1 0x20 DUP2 ADD MLOAD PUSH1 0x20 DUP6 ADD MSTORE PUSH1 0x40 DUP2 ADD MLOAD PUSH1 0x40 DUP6 ADD MSTORE PUSH1 0x60 DUP2 ADD MLOAD ISZERO ISZERO PUSH1 0x60 DUP6 ADD MSTORE PUSH1 0x80 DUP2 ADD MLOAD ISZERO ISZERO PUSH1 0x80 DUP6 ADD MSTORE POP PUSH1 0xA0 DUP4 ADD SWAP3 POP PUSH1 0x20 DUP5 ADD SWAP4 POP PUSH1 0x1 DUP2 ADD SWAP1 POP PUSH2 0x869 JUMP JUMPDEST POP SWAP1 SWAP6 SWAP5 POP POP POP POP POP JUMP JUMPDEST PUSH1 0x0 DUP1 PUSH1 0x40 DUP4 DUP6 SUB SLT ISZERO PUSH2 0x8D9 JUMPI PUSH1 0x0 DUP1 REVERT JUMPDEST PUSH2 0x8E2 DUP4 PUSH2 0x811 JUMP JUMPDEST SWAP5 PUSH1 0x20 SWAP4 SWAP1 SWAP4 ADD CALLDATALOAD SWAP4 POP POP POP JUMP JUMPDEST PUSH1 0x0 PUSH1 0x20 DUP3 DUP5 SUB SLT ISZERO PUSH2 0x902 JUMPI PUSH1 0x0 DUP1 REVERT JUMPDEST POP CALLDATALOAD SWAP2 SWAP1 POP JUMP JUMPDEST PUSH1 0x0 DUP1 PUSH1 0x40 DUP4 DUP6 SUB SLT ISZERO PUSH2 0x91C JUMPI PUSH1 0x0 DUP1 REVERT JUMPDEST POP POP DUP1 CALLDATALOAD SWAP3 PUSH1 0x20 SWAP1 SWAP2 ADD CALLDATALOAD SWAP2 POP JUMP JUMPDEST PUSH4 0x4E487B71 PUSH1 0xE0 SHL PUSH1 0x0 MSTORE PUSH1 0x32 PUSH1 0x4 MSTORE PUSH1 0x24 PUSH1 0x0 REVERT JUMPDEST PUSH4 0x4E487B71 PUSH1 0xE0 SHL PUSH1 0x0 MSTORE PUSH1 0x11 PUSH1 0x4 MSTORE PUSH1 0x24 PUSH1 0x0 REVERT JUMPDEST DUP1 DUP3 ADD DUP1 DUP3 GT ISZERO PUSH2 0x96A JUMPI PUSH2 0x96A PUSH2 0x941 JUMP JUMPDEST SWAP3 SWAP2 POP POP JUMP JUMPDEST DUP1 DUP3 MUL DUP2 ISZERO DUP3 DUP3 DIV DUP5 EQ OR PUSH2 0x96A JUMPI PUSH2 0x96A PUSH2 0x941 JUMP JUMPDEST DUP2 DUP2 SUB DUP2 DUP2 GT ISZERO PUSH2 0x96A JUMPI PUSH2 0x96A PUSH2 0x941 JUMP JUMPDEST PUSH1 0x0 DUP3 PUSH2 0x9B7 JUMPI PUSH4 0x4E487B71 PUSH1 0xE0 SHL PUSH1 0x0 MSTORE PUSH1 0x12 PUSH1 0x4 MSTORE PUSH1 0x24 PUSH1 0x0 REVERT JUMPDEST POP DIV SWAP1 JUMP INVALID LOG2 PUSH5 0x6970667358 0x22 SLT KECCAK256 GT BYTE KECCAK256 0xC5 SWAP2 0x4D 0x4F NOT 0xCE PUSH26 0x27BD0605E87F8720716A265D3C63AB09116B439FF36564736F6C PUSH4 0x4300081E STOP CALLER ",
  "sha1": "6f4b8ad231060921ed0f9ebbe40fa0aff9ae2a5c",
  "source": "// SPDX-License-Identifier: MIT\npragma solidity ^0.8.20;\n\nimport \"@openzeppelin/contracts/token/ERC20/IERC20.sol\";\nimport \"@openzeppelin/contracts/token/ERC20/utils/SafeERC20.sol\";\n\ncontract FixedDepositVault {\n    using SafeERC20 for IERC20;\n\n    IERC20 public immutable myToken;\n    uint256 public interestRate = 1; // 1% monthly\n    uint256 public constant SECONDS_PER_MONTH = 30 days;\n    uint256 public penaltyRate = 10; // 10% of interest on renewal\n\n    struct FixedDeposit {\n        uint256 amount;\n        uint256 startTime;\n        uint256 maturityPeriod; // in seconds\n        bool withdrawn;\n        bool renewed;\n    }\n\n    mapping(address => FixedDeposit[]) public fixedDeposits;\n\n    constructor(address _tokenAddress) {\n        myToken = IERC20(_tokenAddress); // Address of your deployed myToken contract\n    }\n\n    // From Remix, after deploying myToken and FixedDepositVault\n\n    // Deposit tokens into a new Fixed Deposit\n    function createFD(uint256 _amount, uint256 _months) external {\n        require(_amount > 0, \"Amount must be greater than 0\");\n        require(_months > 0, \"Must lock for at least 1 month\");\n\n        // Transfer tokens from user to this contract\n        myToken.safeTransferFrom(msg.sender, address(this), _amount);\n\n        fixedDeposits[msg.sender].push(\n            FixedDeposit({\n                amount: _amount,\n                startTime: block.timestamp,\n                maturityPeriod: _months * SECONDS_PER_MONTH,\n                withdrawn: false,\n                renewed: false\n            })\n        );\n    }\n\n    // Internal interest calculator (simple interest)\n    function calculateInterest(\n        FixedDeposit memory fd\n    ) internal view returns (uint256) {\n        uint256 timeElapsed = block.timestamp - fd.startTime;\n        uint256 monthsElapsed = timeElapsed / SECONDS_PER_MONTH;\n\n        uint256 interest = (fd.amount * interestRate * monthsElapsed) / 100;\n        return interest;\n    }\n\n    // Withdraw after maturity\n    function withdrawFD(uint256 _index) external {\n        FixedDeposit storage fd = fixedDeposits[msg.sender][_index];\n\n        require(!fd.withdrawn, \"Already withdrawn\");\n        require(\n            block.timestamp >= fd.startTime + fd.maturityPeriod,\n            \"FD not yet matured\"\n        );\n\n        fd.withdrawn = true;\n\n        uint256 interest = calculateInterest(fd);\n        uint256 total = fd.amount + interest;\n\n        myToken.safeTransfer(msg.sender, total);\n    }\n\n    // Renew FD after maturity\n    function renewFD(uint256 _index, uint256 _newMonths) external {\n        FixedDeposit storage fd = fixedDeposits[msg.sender][_index];\n\n        require(!fd.withdrawn, \"Already withdrawn\");\n        require(\n            block.timestamp >= fd.startTime + fd.maturityPeriod,\n            \"FD not yet matured\"\n        );\n\n        fd.startTime = block.timestamp;\n        fd.maturityPeriod = _newMonths * SECONDS_PER_MONTH;\n        fd.renewed = true;\n    }\n\n    // View all FDs of a user\n    function getFDs(\n        address user\n    ) external view returns (FixedDeposit[] memory) {\n        return fixedDeposits[user];\n    }\n}\n",
  "sourcePath": "contracts/fixed_deposit.sol",
  "type": "contract"
}